{
  "_format": "hh-sol-artifact-1",
  "contractName": "SmartLock",
  "sourceName": "contracts/SmartLock.sol",
  "abi": [
    {
      "inputs": [
        {
          "internalType": "address",
          "name": "_oracleAddress",
          "type": "address"
        }
      ],
      "stateMutability": "nonpayable",
      "type": "constructor"
    },
    {
      "anonymous": false,
      "inputs": [],
      "name": "Locked",
      "type": "event"
    },
    {
      "anonymous": false,
      "inputs": [
        {
          "indexed": true,
          "internalType": "address",
          "name": "previousOwner",
          "type": "address"
        },
        {
          "indexed": true,
          "internalType": "address",
          "name": "newOwner",
          "type": "address"
        }
      ],
      "name": "OwnershipTransferred",
      "type": "event"
    },
    {
      "anonymous": false,
      "inputs": [
        {
          "indexed": true,
          "internalType": "address",
          "name": "user",
          "type": "address"
        }
      ],
      "name": "Unlocked",
      "type": "event"
    },
    {
      "inputs": [],
      "name": "getLockStatus",
      "outputs": [
        {
          "internalType": "bool",
          "name": "",
          "type": "bool"
        }
      ],
      "stateMutability": "view",
      "type": "function"
    },
    {
      "inputs": [
        {
          "internalType": "address",
          "name": "user",
          "type": "address"
        }
      ],
      "name": "getUserUnlockTime",
      "outputs": [
        {
          "internalType": "uint256",
          "name": "",
          "type": "uint256"
        }
      ],
      "stateMutability": "view",
      "type": "function"
    },
    {
      "inputs": [],
      "name": "identityOracle",
      "outputs": [
        {
          "internalType": "contract IIdentityOracle",
          "name": "",
          "type": "address"
        }
      ],
      "stateMutability": "view",
      "type": "function"
    },
    {
      "inputs": [],
      "name": "isLocked",
      "outputs": [
        {
          "internalType": "bool",
          "name": "",
          "type": "bool"
        }
      ],
      "stateMutability": "view",
      "type": "function"
    },
    {
      "inputs": [],
      "name": "lock",
      "outputs": [],
      "stateMutability": "nonpayable",
      "type": "function"
    },
    {
      "inputs": [],
      "name": "lockTimeout",
      "outputs": [
        {
          "internalType": "uint256",
          "name": "",
          "type": "uint256"
        }
      ],
      "stateMutability": "view",
      "type": "function"
    },
    {
      "inputs": [],
      "name": "owner",
      "outputs": [
        {
          "internalType": "address",
          "name": "",
          "type": "address"
        }
      ],
      "stateMutability": "view",
      "type": "function"
    },
    {
      "inputs": [
        {
          "internalType": "uint256",
          "name": "timeout",
          "type": "uint256"
        }
      ],
      "name": "setLockTimeout",
      "outputs": [],
      "stateMutability": "nonpayable",
      "type": "function"
    },
    {
      "inputs": [
        {
          "internalType": "address",
          "name": "newOwner",
          "type": "address"
        }
      ],
      "name": "transferOwnership",
      "outputs": [],
      "stateMutability": "nonpayable",
      "type": "function"
    },
    {
      "inputs": [
        {
          "internalType": "address",
          "name": "user",
          "type": "address"
        }
      ],
      "name": "unlock",
      "outputs": [],
      "stateMutability": "nonpayable",
      "type": "function"
    }
  ],
  "bytecode": "0x608060405261012c60025534801561001657600080fd5b50604051610e8d380380610e8d8339818101604052810190610038919061013c565b806000806101000a81548173ffffffffffffffffffffffffffffffffffffffff021916908373ffffffffffffffffffffffffffffffffffffffff16021790555033600160006101000a81548173ffffffffffffffffffffffffffffffffffffffff021916908373ffffffffffffffffffffffffffffffffffffffff16021790555060018060146101000a81548160ff02191690831515021790555050610169565b600080fd5b600073ffffffffffffffffffffffffffffffffffffffff82169050919050565b6000610109826100de565b9050919050565b610119816100fe565b811461012457600080fd5b50565b60008151905061013681610110565b92915050565b600060208284031215610152576101516100d9565b5b600061016084828501610127565b91505092915050565b610d15806101786000396000f3fe608060405234801561001057600080fd5b506004361061009e5760003560e01c806394ad5a9d1161006657806394ad5a9d146101355780639ae8ad4514610165578063a4e2d63414610183578063f2fde38b146101a1578063f83d08ba146101bd5761009e565b80632f6c493c146100a3578063356dc111146100bf578063666411d4146100dd5780638711e4a9146100f95780638da5cb5b14610117575b600080fd5b6100bd60048036038101906100b8919061088c565b6101c7565b005b6100c7610435565b6040516100d49190610918565b60405180910390f35b6100f760048036038101906100f29190610969565b610459565b005b6101016104f3565b60405161010e91906109a5565b60405180910390f35b61011f6104f9565b60405161012c91906109cf565b60405180910390f35b61014f600480360381019061014a919061088c565b61051f565b60405161015c91906109a5565b60405180910390f35b61016d610568565b60405161017a9190610a05565b60405180910390f35b61018b61057f565b6040516101989190610a05565b60405180910390f35b6101bb60048036038101906101b6919061088c565b610592565b005b6101c5610751565b005b60008054906101000a900473ffffffffffffffffffffffffffffffffffffffff1673ffffffffffffffffffffffffffffffffffffffff16632129c761826040518263ffffffff1660e01b815260040161022091906109cf565b602060405180830381865afa15801561023d573d6000803e3d6000fd5b505050506040513d601f19601f820116820180604052508101906102619190610a4c565b6102a0576040517f08c379a000000000000000000000000000000000000000000000000000000000815260040161029790610ad6565b60405180910390fd5b60008060009054906101000a900473ffffffffffffffffffffffffffffffffffffffff1673ffffffffffffffffffffffffffffffffffffffff16636b51c8b3836040518263ffffffff1660e01b81526004016102fc91906109cf565b602060405180830381865afa158015610319573d6000803e3d6000fd5b505050506040513d601f19601f8201168201806040525081019061033d9190610b0b565b9050600254814261034e9190610b67565b111561038f576040517f08c379a000000000000000000000000000000000000000000000000000000000815260040161038690610be7565b60405180910390fd5b6000600160146101000a81548160ff02191690831515021790555042600360008473ffffffffffffffffffffffffffffffffffffffff1673ffffffffffffffffffffffffffffffffffffffff168152602001908152602001600020819055508173ffffffffffffffffffffffffffffffffffffffff167f7e6adfec7e3f286831a0200a754127c171a2da564078722cb97704741bbdb0ea60405160405180910390a25050565b60008054906101000a900473ffffffffffffffffffffffffffffffffffffffff1681565b600160009054906101000a900473ffffffffffffffffffffffffffffffffffffffff1673ffffffffffffffffffffffffffffffffffffffff163373ffffffffffffffffffffffffffffffffffffffff16146104e9576040517f08c379a00000000000000000000000000000000000000000000000000000000081526004016104e090610c53565b60405180910390fd5b8060028190555050565b60025481565b600160009054906101000a900473ffffffffffffffffffffffffffffffffffffffff1681565b6000600360008373ffffffffffffffffffffffffffffffffffffffff1673ffffffffffffffffffffffffffffffffffffffff168152602001908152602001600020549050919050565b6000600160149054906101000a900460ff16905090565b600160149054906101000a900460ff1681565b600160009054906101000a900473ffffffffffffffffffffffffffffffffffffffff1673ffffffffffffffffffffffffffffffffffffffff163373ffffffffffffffffffffffffffffffffffffffff1614610622576040517f08c379a000000000000000000000000000000000000000000000000000000000815260040161061990610c53565b60405180910390fd5b600073ffffffffffffffffffffffffffffffffffffffff168173ffffffffffffffffffffffffffffffffffffffff1603610691576040517f08c379a000000000000000000000000000000000000000000000000000000000815260040161068890610cbf565b60405180910390fd5b8073ffffffffffffffffffffffffffffffffffffffff16600160009054906101000a900473ffffffffffffffffffffffffffffffffffffffff1673ffffffffffffffffffffffffffffffffffffffff167f8be0079c531659141344cd1fd0a4f28419497f9722a3daafe3b4186f6b6457e060405160405180910390a380600160006101000a81548173ffffffffffffffffffffffffffffffffffffffff021916908373ffffffffffffffffffffffffffffffffffffffff16021790555050565b600160009054906101000a900473ffffffffffffffffffffffffffffffffffffffff1673ffffffffffffffffffffffffffffffffffffffff163373ffffffffffffffffffffffffffffffffffffffff16146107e1576040517f08c379a00000000000000000000000000000000000000000000000000000000081526004016107d890610c53565b60405180910390fd5b60018060146101000a81548160ff0219169083151502179055507f0f2e5b6c72c6a4491efd919a9f9a409f324ef0708c11ee57d410c2cb06c0992b60405160405180910390a1565b600080fd5b600073ffffffffffffffffffffffffffffffffffffffff82169050919050565b60006108598261082e565b9050919050565b6108698161084e565b811461087457600080fd5b50565b60008135905061088681610860565b92915050565b6000602082840312156108a2576108a1610829565b5b60006108b084828501610877565b91505092915050565b6000819050919050565b60006108de6108d96108d48461082e565b6108b9565b61082e565b9050919050565b60006108f0826108c3565b9050919050565b6000610902826108e5565b9050919050565b610912816108f7565b82525050565b600060208201905061092d6000830184610909565b92915050565b6000819050919050565b61094681610933565b811461095157600080fd5b50565b6000813590506109638161093d565b92915050565b60006020828403121561097f5761097e610829565b5b600061098d84828501610954565b91505092915050565b61099f81610933565b82525050565b60006020820190506109ba6000830184610996565b92915050565b6109c98161084e565b82525050565b60006020820190506109e460008301846109c0565b92915050565b60008115159050919050565b6109ff816109ea565b82525050565b6000602082019050610a1a60008301846109f6565b92915050565b610a29816109ea565b8114610a3457600080fd5b50565b600081519050610a4681610a20565b92915050565b600060208284031215610a6257610a61610829565b5b6000610a7084828501610a37565b91505092915050565b600082825260208201905092915050565b7f55736572206e6f74207665726966696564000000000000000000000000000000600082015250565b6000610ac0601183610a79565b9150610acb82610a8a565b602082019050919050565b60006020820190508181036000830152610aef81610ab3565b9050919050565b600081519050610b058161093d565b92915050565b600060208284031215610b2157610b20610829565b5b6000610b2f84828501610af6565b91505092915050565b7f4e487b7100000000000000000000000000000000000000000000000000000000600052601160045260246000fd5b6000610b7282610933565b9150610b7d83610933565b9250828203905081811115610b9557610b94610b38565b5b92915050565b7f566572696669636174696f6e2065787069726564000000000000000000000000600082015250565b6000610bd1601483610a79565b9150610bdc82610b9b565b602082019050919050565b60006020820190508181036000830152610c0081610bc4565b9050919050565b7f4e6f742074686520636f6e7472616374206f776e657200000000000000000000600082015250565b6000610c3d601683610a79565b9150610c4882610c07565b602082019050919050565b60006020820190508181036000830152610c6c81610c30565b9050919050565b7f4e6577206f776e657220697320746865207a65726f2061646472657373000000600082015250565b6000610ca9601d83610a79565b9150610cb482610c73565b602082019050919050565b60006020820190508181036000830152610cd881610c9c565b905091905056fea26469706673582212209eabc923203e9334241f2789904d01920a4ba415bcf0b44c1d252b5259c48c5264736f6c63430008140033",
  "linkReferences": {},
  "deployedLinkReferences": {}
}